{
  "_format": "hh-sol-artifact-1",
  "contractName": "Transactions",
  "sourceName": "contracts/Transaction.sol",
  "abi": [
    {
      "anonymous": false,
      "inputs": [
        {
          "indexed": true,
          "internalType": "address",
          "name": "from",
          "type": "address"
        },
        {
          "indexed": false,
          "internalType": "address payable",
          "name": "receiver",
          "type": "address"
        },
        {
          "indexed": false,
          "internalType": "uint256",
          "name": "amount",
          "type": "uint256"
        },
        {
          "indexed": false,
          "internalType": "string",
          "name": "message",
          "type": "string"
        },
        {
          "indexed": false,
          "internalType": "uint256",
          "name": "timestamp",
          "type": "uint256"
        },
        {
          "indexed": false,
          "internalType": "string",
          "name": "keyword",
          "type": "string"
        }
      ],
      "name": "Transfer",
      "type": "event"
    },
    {
      "inputs": [
        {
          "internalType": "address payable",
          "name": "receiver",
          "type": "address"
        },
        {
          "internalType": "uint256",
          "name": "amount",
          "type": "uint256"
        },
        {
          "internalType": "string",
          "name": "message",
          "type": "string"
        },
        {
          "internalType": "string",
          "name": "keyword",
          "type": "string"
        }
      ],
      "name": "addToBlockchain",
      "outputs": [],
      "stateMutability": "nonpayable",
      "type": "function"
    },
    {
      "inputs": [],
      "name": "getAllTransactions",
      "outputs": [
        {
          "components": [
            {
              "internalType": "address",
              "name": "sender",
              "type": "address"
            },
            {
              "internalType": "address payable",
              "name": "receiver",
              "type": "address"
            },
            {
              "internalType": "uint256",
              "name": "amount",
              "type": "uint256"
            },
            {
              "internalType": "string",
              "name": "message",
              "type": "string"
            },
            {
              "internalType": "uint256",
              "name": "timestamp",
              "type": "uint256"
            },
            {
              "internalType": "string",
              "name": "keyword",
              "type": "string"
            }
          ],
          "internalType": "struct Transactions.TransferStruct[]",
          "name": "",
          "type": "tuple[]"
        }
      ],
      "stateMutability": "view",
      "type": "function"
    },
    {
      "inputs": [],
      "name": "getTransactionCount",
      "outputs": [
        {
          "internalType": "uint256",
          "name": "",
          "type": "uint256"
        }
      ],
      "stateMutability": "view",
      "type": "function"
    },
    {
      "inputs": [
        {
          "internalType": "address payable",
          "name": "receiver",
          "type": "address"
        },
        {
          "internalType": "string",
          "name": "message",
          "type": "string"
        },
        {
          "internalType": "string",
          "name": "keyword",
          "type": "string"
        }
      ],
      "name": "transfer",
      "outputs": [],
      "stateMutability": "payable",
      "type": "function"
    },
    {
      "stateMutability": "payable",
      "type": "receive"
    }
  ],
  "bytecode": "0x608060405234801561001057600080fd5b506111c6806100206000396000f3fe6080604052600436106100435760003560e01c806327506f531461004f5780632e7700f01461007a57806381378af7146100a5578063cc2d7ead146100c15761004a565b3661004a57005b600080fd5b34801561005b57600080fd5b506100646100ea565b6040516100719190610c3d565b60405180910390f35b34801561008657600080fd5b5061008f61032d565b60405161009c9190610c6e565b60405180910390f35b6100bf60048036038101906100ba9190610dfe565b610336565b005b3480156100cd57600080fd5b506100e860048036038101906100e39190610eb5565b610698565b005b60606001805480602002602001604051908101604052809291908181526020016000905b8282101561032457838290600052602060002090600602016040518060c00160405290816000820160009054906101000a900473ffffffffffffffffffffffffffffffffffffffff1673ffffffffffffffffffffffffffffffffffffffff1673ffffffffffffffffffffffffffffffffffffffff1681526020016001820160009054906101000a900473ffffffffffffffffffffffffffffffffffffffff1673ffffffffffffffffffffffffffffffffffffffff1673ffffffffffffffffffffffffffffffffffffffff168152602001600282015481526020016003820180546101f790610f83565b80601f016020809104026020016040519081016040528092919081815260200182805461022390610f83565b80156102705780601f1061024557610100808354040283529160200191610270565b820191906000526020600020905b81548152906001019060200180831161025357829003601f168201915b505050505081526020016004820154815260200160058201805461029390610f83565b80601f01602080910402602001604051908101604052809291908181526020018280546102bf90610f83565b801561030c5780601f106102e15761010080835404028352916020019161030c565b820191906000526020600020905b8154815290600101906020018083116102ef57829003601f168201915b5050505050815250508152602001906001019061010e565b50505050905090565b60008054905090565b3373ffffffffffffffffffffffffffffffffffffffff1631341115610390576040517f08c379a000000000000000000000000000000000000000000000000000000000815260040161038790611012565b60405180910390fd5b8273ffffffffffffffffffffffffffffffffffffffff166108fc349081150290604051600060405180830381858888f193505050501580156103d6573d6000803e3d6000fd5b5061042d6040518060400160405280601081526020017f72656365697665722062616c616e6365000000000000000000000000000000008152508473ffffffffffffffffffffffffffffffffffffffff163161086f565b6104836040518060400160405280600e81526020017f73656e6465722062616c616e63650000000000000000000000000000000000008152503373ffffffffffffffffffffffffffffffffffffffff163161086f565b6104c26040518060400160405280601081526020017f636f6e74726163742062616c616e6365000000000000000000000000000000008152504761086f565b60016000808282546104d49190611061565b9250508190555060016040518060c001604052803373ffffffffffffffffffffffffffffffffffffffff1681526020018573ffffffffffffffffffffffffffffffffffffffff16815260200134815260200184815260200142815260200183815250908060018154018082558091505060019003906000526020600020906006020160009091909190915060008201518160000160006101000a81548173ffffffffffffffffffffffffffffffffffffffff021916908373ffffffffffffffffffffffffffffffffffffffff16021790555060208201518160010160006101000a81548173ffffffffffffffffffffffffffffffffffffffff021916908373ffffffffffffffffffffffffffffffffffffffff160217905550604082015181600201556060820151816003019080519060200190610613929190610934565b506080820151816004015560a082015181600501908051906020019061063a929190610934565b5050503373ffffffffffffffffffffffffffffffffffffffff167f416cfa4330a4565f45c2fd2dd4826a83a37443aba2ce6f79477c7355afac35fa843485428660405161068b9594939291906110ff565b60405180910390a2505050565b60016000808282546106aa9190611061565b9250508190555060016040518060c001604052803373ffffffffffffffffffffffffffffffffffffffff1681526020018673ffffffffffffffffffffffffffffffffffffffff16815260200185815260200184815260200142815260200183815250908060018154018082558091505060019003906000526020600020906006020160009091909190915060008201518160000160006101000a81548173ffffffffffffffffffffffffffffffffffffffff021916908373ffffffffffffffffffffffffffffffffffffffff16021790555060208201518160010160006101000a81548173ffffffffffffffffffffffffffffffffffffffff021916908373ffffffffffffffffffffffffffffffffffffffff1602179055506040820151816002015560608201518160030190805190602001906107e9929190610934565b506080820151816004015560a0820151816005019080519060200190610810929190610934565b5050503373ffffffffffffffffffffffffffffffffffffffff167f416cfa4330a4565f45c2fd2dd4826a83a37443aba2ce6f79477c7355afac35fa85858542866040516108619594939291906110ff565b60405180910390a250505050565b6109078282604051602401610885929190611160565b6040516020818303038152906040527fb60e72cc000000000000000000000000000000000000000000000000000000007bffffffffffffffffffffffffffffffffffffffffffffffffffffffff19166020820180517bffffffffffffffffffffffffffffffffffffffffffffffffffffffff838183161783525050505061090b565b5050565b60008151905060006a636f6e736f6c652e6c6f679050602083016000808483855afa5050505050565b82805461094090610f83565b90600052602060002090601f01602090048101928261096257600085556109a9565b82601f1061097b57805160ff19168380011785556109a9565b828001600101855582156109a9579182015b828111156109a857825182559160200191906001019061098d565b5b5090506109b691906109ba565b5090565b5b808211156109d35760008160009055506001016109bb565b5090565b600081519050919050565b600082825260208201905092915050565b6000819050602082019050919050565b600073ffffffffffffffffffffffffffffffffffffffff82169050919050565b6000610a2e82610a03565b9050919050565b610a3e81610a23565b82525050565b6000610a4f82610a03565b9050919050565b610a5f81610a44565b82525050565b6000819050919050565b610a7881610a65565b82525050565b600081519050919050565b600082825260208201905092915050565b60005b83811015610ab8578082015181840152602081019050610a9d565b83811115610ac7576000848401525b50505050565b6000601f19601f8301169050919050565b6000610ae982610a7e565b610af38185610a89565b9350610b03818560208601610a9a565b610b0c81610acd565b840191505092915050565b600060c083016000830151610b2f6000860182610a35565b506020830151610b426020860182610a56565b506040830151610b556040860182610a6f565b5060608301518482036060860152610b6d8282610ade565b9150506080830151610b826080860182610a6f565b5060a083015184820360a0860152610b9a8282610ade565b9150508091505092915050565b6000610bb38383610b17565b905092915050565b6000602082019050919050565b6000610bd3826109d7565b610bdd81856109e2565b935083602082028501610bef856109f3565b8060005b85811015610c2b5784840389528151610c0c8582610ba7565b9450610c1783610bbb565b925060208a01995050600181019050610bf3565b50829750879550505050505092915050565b60006020820190508181036000830152610c578184610bc8565b905092915050565b610c6881610a65565b82525050565b6000602082019050610c836000830184610c5f565b92915050565b6000604051905090565b600080fd5b600080fd5b610ca681610a44565b8114610cb157600080fd5b50565b600081359050610cc381610c9d565b92915050565b600080fd5b600080fd5b7f4e487b7100000000000000000000000000000000000000000000000000000000600052604160045260246000fd5b610d0b82610acd565b810181811067ffffffffffffffff82111715610d2a57610d29610cd3565b5b80604052505050565b6000610d3d610c89565b9050610d498282610d02565b919050565b600067ffffffffffffffff821115610d6957610d68610cd3565b5b610d7282610acd565b9050602081019050919050565b82818337600083830152505050565b6000610da1610d9c84610d4e565b610d33565b905082815260208101848484011115610dbd57610dbc610cce565b5b610dc8848285610d7f565b509392505050565b600082601f830112610de557610de4610cc9565b5b8135610df5848260208601610d8e565b91505092915050565b600080600060608486031215610e1757610e16610c93565b5b6000610e2586828701610cb4565b935050602084013567ffffffffffffffff811115610e4657610e45610c98565b5b610e5286828701610dd0565b925050604084013567ffffffffffffffff811115610e7357610e72610c98565b5b610e7f86828701610dd0565b9150509250925092565b610e9281610a65565b8114610e9d57600080fd5b50565b600081359050610eaf81610e89565b92915050565b60008060008060808587031215610ecf57610ece610c93565b5b6000610edd87828801610cb4565b9450506020610eee87828801610ea0565b935050604085013567ffffffffffffffff811115610f0f57610f0e610c98565b5b610f1b87828801610dd0565b925050606085013567ffffffffffffffff811115610f3c57610f3b610c98565b5b610f4887828801610dd0565b91505092959194509250565b7f4e487b7100000000000000000000000000000000000000000000000000000000600052602260045260246000fd5b60006002820490506001821680610f9b57607f821691505b60208210811415610faf57610fae610f54565b5b50919050565b600082825260208201905092915050565b7f4e6f7420656e6f7567682042616c616e63650000000000000000000000000000600082015250565b6000610ffc601283610fb5565b915061100782610fc6565b602082019050919050565b6000602082019050818103600083015261102b81610fef565b9050919050565b7f4e487b7100000000000000000000000000000000000000000000000000000000600052601160045260246000fd5b600061106c82610a65565b915061107783610a65565b9250827fffffffffffffffffffffffffffffffffffffffffffffffffffffffffffffffff038211156110ac576110ab611032565b5b828201905092915050565b6110c081610a44565b82525050565b60006110d182610a7e565b6110db8185610fb5565b93506110eb818560208601610a9a565b6110f481610acd565b840191505092915050565b600060a08201905061111460008301886110b7565b6111216020830187610c5f565b818103604083015261113381866110c6565b90506111426060830185610c5f565b818103608083015261115481846110c6565b90509695505050505050565b6000604082019050818103600083015261117a81856110c6565b90506111896020830184610c5f565b939250505056fea264697066735822122009dfa64053fc42a1ff000737370d9e4ff30fd8d5f71f4865edad678c7a27cbc364736f6c63430008090033",
  "linkReferences": {},
  "deployedLinkReferences": {}
}